{
  "contractName": "Wallet",
  "abi": [
    {
      "inputs": [
        {
          "internalType": "address[]",
          "name": "_approvers",
          "type": "address[]"
        },
        {
          "internalType": "uint256",
          "name": "_quorum",
          "type": "uint256"
        }
      ],
      "stateMutability": "payable",
      "type": "constructor",
      "payable": true
    },
    {
      "inputs": [
        {
          "internalType": "uint256",
          "name": "",
          "type": "uint256"
        }
      ],
      "name": "approvers",
      "outputs": [
        {
          "internalType": "address",
          "name": "",
          "type": "address"
        }
      ],
      "stateMutability": "view",
      "type": "function",
      "constant": true
    },
    {
      "inputs": [],
      "name": "quorum",
      "outputs": [
        {
          "internalType": "uint256",
          "name": "",
          "type": "uint256"
        }
      ],
      "stateMutability": "view",
      "type": "function",
      "constant": true
    },
    {
      "inputs": [
        {
          "internalType": "uint256",
          "name": "",
          "type": "uint256"
        }
      ],
      "name": "transfers",
      "outputs": [
        {
          "internalType": "uint256",
          "name": "id",
          "type": "uint256"
        },
        {
          "internalType": "uint256",
          "name": "amount",
          "type": "uint256"
        },
        {
          "internalType": "address payable",
          "name": "to",
          "type": "address"
        },
        {
          "internalType": "uint256",
          "name": "approvals",
          "type": "uint256"
        },
        {
          "internalType": "bool",
          "name": "sent",
          "type": "bool"
        }
      ],
      "stateMutability": "view",
      "type": "function",
      "constant": true
    },
    {
      "inputs": [
        {
          "internalType": "uint256",
          "name": "amount",
          "type": "uint256"
        },
        {
          "internalType": "address payable",
          "name": "to",
          "type": "address"
        }
      ],
      "name": "createTransfer",
      "outputs": [],
      "stateMutability": "nonpayable",
      "type": "function"
    },
    {
      "inputs": [
        {
          "internalType": "uint256",
          "name": "id",
          "type": "uint256"
        }
      ],
      "name": "sendTransfer",
      "outputs": [],
      "stateMutability": "nonpayable",
      "type": "function"
    }
  ],
  "bytecode": "0x608060405260405162000dc638038062000dc68339818101604052810190620000299190620001cf565b81600090805190602001906200004192919062000051565b508060018190555050506200032d565b828054828255906000526020600020908101928215620000cd579160200282015b82811115620000cc5782518260006101000a81548173ffffffffffffffffffffffffffffffffffffffff021916908373ffffffffffffffffffffffffffffffffffffffff1602179055509160200191906001019062000072565b5b509050620000dc9190620000e0565b5090565b5b80821115620000fb576000816000905550600101620000e1565b5090565b60006200011662000110846200025d565b62000229565b905080838252602082019050828560208602820111156200013657600080fd5b60005b858110156200016a57816200014f888262000174565b84526020840193506020830192505060018101905062000139565b5050509392505050565b6000815190506200018581620002f9565b92915050565b600082601f8301126200019d57600080fd5b8151620001af848260208601620000ff565b91505092915050565b600081519050620001c98162000313565b92915050565b60008060408385031215620001e357600080fd5b600083015167ffffffffffffffff811115620001fe57600080fd5b6200020c858286016200018b565b92505060206200021f85828601620001b8565b9150509250929050565b6000604051905081810181811067ffffffffffffffff82111715620002535762000252620002ca565b5b8060405250919050565b600067ffffffffffffffff8211156200027b576200027a620002ca565b5b602082029050602081019050919050565b60006200029982620002a0565b9050919050565b600073ffffffffffffffffffffffffffffffffffffffff82169050919050565b6000819050919050565b7f4e487b7100000000000000000000000000000000000000000000000000000000600052604160045260246000fd5b62000304816200028c565b81146200031057600080fd5b50565b6200031e81620002c0565b81146200032a57600080fd5b50565b610a89806200033d6000396000f3fe608060405234801561001057600080fd5b50600436106100575760003560e01c80631703a0181461005c5780634c12fa471461007a5780639377d71114610096578063d1c68d1e146100ca578063d3650fb8146100e6575b600080fd5b610064610116565b60405161007191906108d4565b60405180910390f35b610094600480360381019061008f9190610781565b61011c565b005b6100b060048036038101906100ab9190610758565b610322565b6040516100c19594939291906108ef565b60405180910390f35b6100e460048036038101906100df9190610758565b610385565b005b61010060048036038101906100fb9190610758565b6106ef565b60405161010d9190610879565b60405180910390f35b60015481565b6000805b6000805490508110156101dd573373ffffffffffffffffffffffffffffffffffffffff166000828154811061017e577f4e487b7100000000000000000000000000000000000000000000000000000000600052603260045260246000fd5b9060005260206000200160009054906101000a900473ffffffffffffffffffffffffffffffffffffffff1673ffffffffffffffffffffffffffffffffffffffff1614156101ca57600191505b80806101d5906109ad565b915050610120565b506001151581151514610225576040517f08c379a000000000000000000000000000000000000000000000000000000000815260040161021c906108b4565b60405180910390fd5b6040518060a0016040528060035481526020018481526020018373ffffffffffffffffffffffffffffffffffffffff1681526020016000815260200160001515815250600260006003548152602001908152602001600020600082015181600001556020820151816001015560408201518160020160006101000a81548173ffffffffffffffffffffffffffffffffffffffff021916908373ffffffffffffffffffffffffffffffffffffffff1602179055506060820151816003015560808201518160040160006101000a81548160ff02191690831515021790555090505060036000815480929190610318906109ad565b9190505550505050565b60026020528060005260406000206000915090508060000154908060010154908060020160009054906101000a900473ffffffffffffffffffffffffffffffffffffffff16908060030154908060040160009054906101000a900460ff16905085565b6000805b600080549050811015610446573373ffffffffffffffffffffffffffffffffffffffff16600082815481106103e7577f4e487b7100000000000000000000000000000000000000000000000000000000600052603260045260246000fd5b9060005260206000200160009054906101000a900473ffffffffffffffffffffffffffffffffffffffff1673ffffffffffffffffffffffffffffffffffffffff16141561043357600191505b808061043e906109ad565b915050610389565b50600115158115151461048e576040517f08c379a0000000000000000000000000000000000000000000000000000000008152600401610485906108b4565b60405180910390fd5b600015156002600084815260200190815260200160002060040160009054906101000a900460ff161515146104f8576040517f08c379a00000000000000000000000000000000000000000000000000000000081526004016104ef90610894565b60405180910390fd5b60001515600460003373ffffffffffffffffffffffffffffffffffffffff1673ffffffffffffffffffffffffffffffffffffffff168152602001908152602001600020600084815260200190815260200160002060009054906101000a900460ff16151514156105f8576001600460003373ffffffffffffffffffffffffffffffffffffffff1673ffffffffffffffffffffffffffffffffffffffff168152602001908152602001600020600084815260200190815260200160002060006101000a81548160ff0219169083151502179055506002600083815260200190815260200160002060030160008154809291906105f2906109ad565b91905055505b6001546002600084815260200190815260200160002060030154106106ea5760016002600084815260200190815260200160002060040160006101000a81548160ff02191690831515021790555060006002600084815260200190815260200160002060020160009054906101000a900473ffffffffffffffffffffffffffffffffffffffff1690506000600260008581526020019081526020016000206001015490508173ffffffffffffffffffffffffffffffffffffffff166108fc829081150290604051600060405180830381858888f193505050501580156106e2573d6000803e3d6000fd5b5050506106eb565b5b5050565b600081815481106106ff57600080fd5b906000526020600020016000915054906101000a900473ffffffffffffffffffffffffffffffffffffffff1681565b60008135905061073d81610a25565b92915050565b60008135905061075281610a3c565b92915050565b60006020828403121561076a57600080fd5b600061077884828501610743565b91505092915050565b6000806040838503121561079457600080fd5b60006107a285828601610743565b92505060206107b38582860161072e565b9150509250929050565b6107c681610965565b82525050565b6107d581610953565b82525050565b6107e481610977565b82525050565b60006107f7601e83610942565b91507f7472616e736665722068617320616c7265616479206265656e2073656e7400006000830152602082019050919050565b6000610837601583610942565b91507f6f6e6c7920617070726f76657220616c6c6f77656400000000000000000000006000830152602082019050919050565b610873816109a3565b82525050565b600060208201905061088e60008301846107cc565b92915050565b600060208201905081810360008301526108ad816107ea565b9050919050565b600060208201905081810360008301526108cd8161082a565b9050919050565b60006020820190506108e9600083018461086a565b92915050565b600060a082019050610904600083018861086a565b610911602083018761086a565b61091e60408301866107bd565b61092b606083018561086a565b61093860808301846107db565b9695505050505050565b600082825260208201905092915050565b600061095e82610983565b9050919050565b600061097082610983565b9050919050565b60008115159050919050565b600073ffffffffffffffffffffffffffffffffffffffff82169050919050565b6000819050919050565b60006109b8826109a3565b91507fffffffffffffffffffffffffffffffffffffffffffffffffffffffffffffffff8214156109eb576109ea6109f6565b5b600182019050919050565b7f4e487b7100000000000000000000000000000000000000000000000000000000600052601160045260246000fd5b610a2e81610965565b8114610a3957600080fd5b50565b610a45816109a3565b8114610a5057600080fd5b5056fea2646970667358221220f6be4299c1c356c06fd47ed11b85d67f87c765a57bd55b60c14390d065bb51ba64736f6c63430008000033",
  "immutableReferences": {},
  "source": "pragma solidity ^0.8.0;\n\ncontract Wallet {\n  address[] public approvers;\n  uint public quorum;\n  struct Transfer {\n    uint id;\n    uint amount;\n    address payable to;\n    uint approvals;\n    bool sent;\n  }\n  mapping(uint => Transfer) public transfers;\n  uint nextId;\n  mapping(address => mapping(uint => bool)) approvals;\n\n  constructor(address[] memory _approvers, uint _quorum) payable public {\n    approvers = _approvers;\n    quorum = _quorum;\n  }\n\n  function createTransfer(uint amount, address payable to) onlyApprover() external {\n    transfers[nextId] = Transfer(\n      nextId,\n      amount,\n      to,\n      0,\n      false\n    );\n    nextId++;\n  }\n\n  function sendTransfer(uint id) onlyApprover() external {\n    require(transfers[id].sent == false, 'transfer has already been sent');\n    if(approvals[msg.sender][id] == false) {\n      approvals[msg.sender][id] = true;\n      transfers[id].approvals++;\n    }\n    if(transfers[id].approvals >= quorum) {\n      transfers[id].sent = true;\n      address payable to = transfers[id].to;\n      uint amount = transfers[id].amount;\n      to.transfer(amount);\n      return;\n    }\n  }\n\n  modifier onlyApprover() {\n    bool allowed = false;\n    for(uint i; i < approvers.length; i++) {\n      if(approvers[i] == msg.sender) {\n        allowed = true;\n      }\n    }\n    require(allowed == true, 'only approver allowed');\n    _;\n  }\n}\n",
  "sourcePath": "C:\\Users\\admin\\Desktop\\Dapp30\\multisig-wallet\\contracts\\Wallet.sol",
  "compiler": {
    "name": "solc",
    "version": "0.8.0+commit.c7dfd78e.Emscripten.clang"
  },
  "schemaVersion": "3.4.11",
  "updatedAt": "2022-12-03T10:48:08.651Z",
  "networkType": "ethereum",
  "devdoc": {
    "kind": "dev",
    "methods": {},
    "version": 1
  },
  "userdoc": {
    "kind": "user",
    "methods": {},
    "version": 1
  }
}