{
  "contractName": "Wallet",
  "abi": [
    {
      "inputs": [
        {
          "internalType": "address[]",
          "name": "_approvers",
          "type": "address[]"
        },
        {
          "internalType": "uint256",
          "name": "_quorum",
          "type": "uint256"
        }
      ],
      "stateMutability": "payable",
      "type": "constructor",
      "payable": true
    },
    {
      "inputs": [
        {
          "internalType": "uint256",
          "name": "",
          "type": "uint256"
        }
      ],
      "name": "approvers",
      "outputs": [
        {
          "internalType": "address",
          "name": "",
          "type": "address"
        }
      ],
      "stateMutability": "view",
      "type": "function",
      "constant": true
    },
    {
      "inputs": [],
      "name": "quorum",
      "outputs": [
        {
          "internalType": "uint256",
          "name": "",
          "type": "uint256"
        }
      ],
      "stateMutability": "view",
      "type": "function",
      "constant": true
    },
    {
      "inputs": [
        {
          "internalType": "uint256",
          "name": "",
          "type": "uint256"
        }
      ],
      "name": "transfers",
      "outputs": [
        {
          "internalType": "uint256",
          "name": "id",
          "type": "uint256"
        },
        {
          "internalType": "uint256",
          "name": "amount",
          "type": "uint256"
        },
        {
          "internalType": "address payable",
          "name": "to",
          "type": "address"
        },
        {
          "internalType": "uint256",
          "name": "approvals",
          "type": "uint256"
        },
        {
          "internalType": "bool",
          "name": "sent",
          "type": "bool"
        }
      ],
      "stateMutability": "view",
      "type": "function",
      "constant": true
    },
    {
      "inputs": [
        {
          "internalType": "uint256",
          "name": "amount",
          "type": "uint256"
        },
        {
          "internalType": "address payable",
          "name": "to",
          "type": "address"
        }
      ],
      "name": "createTransfer",
      "outputs": [],
      "stateMutability": "nonpayable",
      "type": "function"
    },
    {
      "inputs": [
        {
          "internalType": "uint256",
          "name": "id",
          "type": "uint256"
        }
      ],
      "name": "sendTransfer",
      "outputs": [],
      "stateMutability": "nonpayable",
      "type": "function"
    }
  ],
  "bytecode": "0x608060405260405162000e2b38038062000e2b833981810160405281019062000029919062000328565b81600090805190602001906200004192919062000051565b508060018190555050506200038e565b828054828255906000526020600020908101928215620000cd579160200282015b82811115620000cc5782518260006101000a81548173ffffffffffffffffffffffffffffffffffffffff021916908373ffffffffffffffffffffffffffffffffffffffff1602179055509160200191906001019062000072565b5b509050620000dc9190620000e0565b5090565b5b80821115620000fb576000816000905550600101620000e1565b5090565b6000604051905090565b600080fd5b600080fd5b600080fd5b6000601f19601f8301169050919050565b7f4e487b7100000000000000000000000000000000000000000000000000000000600052604160045260246000fd5b620001638262000118565b810181811067ffffffffffffffff8211171562000185576200018462000129565b5b80604052505050565b60006200019a620000ff565b9050620001a8828262000158565b919050565b600067ffffffffffffffff821115620001cb57620001ca62000129565b5b602082029050602081019050919050565b600080fd5b600073ffffffffffffffffffffffffffffffffffffffff82169050919050565b60006200020e82620001e1565b9050919050565b620002208162000201565b81146200022c57600080fd5b50565b600081519050620002408162000215565b92915050565b60006200025d6200025784620001ad565b6200018e565b90508083825260208201905060208402830185811115620002835762000282620001dc565b5b835b81811015620002b057806200029b88826200022f565b84526020840193505060208101905062000285565b5050509392505050565b600082601f830112620002d257620002d162000113565b5b8151620002e484826020860162000246565b91505092915050565b6000819050919050565b6200030281620002ed565b81146200030e57600080fd5b50565b6000815190506200032281620002f7565b92915050565b6000806040838503121562000342576200034162000109565b5b600083015167ffffffffffffffff8111156200036357620003626200010e565b5b6200037185828601620002ba565b9250506020620003848582860162000311565b9150509250929050565b610a8d806200039e6000396000f3fe608060405234801561001057600080fd5b50600436106100575760003560e01c80631703a0181461005c5780634c12fa471461007a5780639377d71114610096578063d1c68d1e146100ca578063d3650fb8146100e6575b600080fd5b610064610116565b60405161007191906106f8565b60405180910390f35b610094600480360381019061008f91906107a2565b61011c565b005b6100b060048036038101906100ab91906107e2565b6102fb565b6040516100c1959493929190610839565b60405180910390f35b6100e460048036038101906100df91906107e2565b61035e565b005b61010060048036038101906100fb91906107e2565b6106a0565b60405161010d91906108ad565b60405180910390f35b60015481565b6000805b6000805490508110156101b6573373ffffffffffffffffffffffffffffffffffffffff1660008281548110610158576101576108c8565b5b9060005260206000200160009054906101000a900473ffffffffffffffffffffffffffffffffffffffff1673ffffffffffffffffffffffffffffffffffffffff16036101a357600191505b80806101ae90610926565b915050610120565b5060011515811515146101fe576040517f08c379a00000000000000000000000000000000000000000000000000000000081526004016101f5906109cb565b60405180910390fd5b6040518060a0016040528060035481526020018481526020018373ffffffffffffffffffffffffffffffffffffffff1681526020016000815260200160001515815250600260006003548152602001908152602001600020600082015181600001556020820151816001015560408201518160020160006101000a81548173ffffffffffffffffffffffffffffffffffffffff021916908373ffffffffffffffffffffffffffffffffffffffff1602179055506060820151816003015560808201518160040160006101000a81548160ff021916908315150217905550905050600360008154809291906102f190610926565b9190505550505050565b60026020528060005260406000206000915090508060000154908060010154908060020160009054906101000a900473ffffffffffffffffffffffffffffffffffffffff16908060030154908060040160009054906101000a900460ff16905085565b6000805b6000805490508110156103f8573373ffffffffffffffffffffffffffffffffffffffff166000828154811061039a576103996108c8565b5b9060005260206000200160009054906101000a900473ffffffffffffffffffffffffffffffffffffffff1673ffffffffffffffffffffffffffffffffffffffff16036103e557600191505b80806103f090610926565b915050610362565b506001151581151514610440576040517f08c379a0000000000000000000000000000000000000000000000000000000008152600401610437906109cb565b60405180910390fd5b600015156002600084815260200190815260200160002060040160009054906101000a900460ff161515146104aa576040517f08c379a00000000000000000000000000000000000000000000000000000000081526004016104a190610a37565b60405180910390fd5b60001515600460003373ffffffffffffffffffffffffffffffffffffffff1673ffffffffffffffffffffffffffffffffffffffff168152602001908152602001600020600084815260200190815260200160002060009054906101000a900460ff161515036105a9576001600460003373ffffffffffffffffffffffffffffffffffffffff1673ffffffffffffffffffffffffffffffffffffffff168152602001908152602001600020600084815260200190815260200160002060006101000a81548160ff0219169083151502179055506002600083815260200190815260200160002060030160008154809291906105a390610926565b91905055505b60015460026000848152602001908152602001600020600301541061069b5760016002600084815260200190815260200160002060040160006101000a81548160ff02191690831515021790555060006002600084815260200190815260200160002060020160009054906101000a900473ffffffffffffffffffffffffffffffffffffffff1690506000600260008581526020019081526020016000206001015490508173ffffffffffffffffffffffffffffffffffffffff166108fc829081150290604051600060405180830381858888f19350505050158015610693573d6000803e3d6000fd5b50505061069c565b5b5050565b600081815481106106b057600080fd5b906000526020600020016000915054906101000a900473ffffffffffffffffffffffffffffffffffffffff1681565b6000819050919050565b6106f2816106df565b82525050565b600060208201905061070d60008301846106e9565b92915050565b600080fd5b610721816106df565b811461072c57600080fd5b50565b60008135905061073e81610718565b92915050565b600073ffffffffffffffffffffffffffffffffffffffff82169050919050565b600061076f82610744565b9050919050565b61077f81610764565b811461078a57600080fd5b50565b60008135905061079c81610776565b92915050565b600080604083850312156107b9576107b8610713565b5b60006107c78582860161072f565b92505060206107d88582860161078d565b9150509250929050565b6000602082840312156107f8576107f7610713565b5b60006108068482850161072f565b91505092915050565b61081881610764565b82525050565b60008115159050919050565b6108338161081e565b82525050565b600060a08201905061084e60008301886106e9565b61085b60208301876106e9565b610868604083018661080f565b61087560608301856106e9565b610882608083018461082a565b9695505050505050565b600061089782610744565b9050919050565b6108a78161088c565b82525050565b60006020820190506108c2600083018461089e565b92915050565b7f4e487b7100000000000000000000000000000000000000000000000000000000600052603260045260246000fd5b7f4e487b7100000000000000000000000000000000000000000000000000000000600052601160045260246000fd5b6000610931826106df565b91507fffffffffffffffffffffffffffffffffffffffffffffffffffffffffffffffff8203610963576109626108f7565b5b600182019050919050565b600082825260208201905092915050565b7f6f6e6c7920617070726f76657220616c6c6f7765640000000000000000000000600082015250565b60006109b560158361096e565b91506109c08261097f565b602082019050919050565b600060208201905081810360008301526109e4816109a8565b9050919050565b7f7472616e736665722068617320616c7265616479206265656e2073656e740000600082015250565b6000610a21601e8361096e565b9150610a2c826109eb565b602082019050919050565b60006020820190508181036000830152610a5081610a14565b905091905056fea2646970667358221220c3e698ef15c4151665c4feee66b42f41518926d694c9ecd6e0c4dfe57a8b4c4864736f6c63430008110033",
  "immutableReferences": {},
  "source": "pragma solidity ^0.8.0;\n\ncontract Wallet {\n  address[] public approvers;\n  uint public quorum;\n  struct Transfer {\n    uint id;\n    uint amount;\n    address payable to;\n    uint approvals;\n    bool sent;\n  }\n  mapping(uint => Transfer) public transfers;\n  uint nextId;\n  mapping(address => mapping(uint => bool)) approvals;\n\n  constructor(address[] memory _approvers, uint _quorum) payable public {\n    approvers = _approvers;\n    quorum = _quorum;\n  }\n\n  function createTransfer(uint amount, address payable to) onlyApprover() external {\n    transfers[nextId] = Transfer(\n      nextId,\n      amount,\n      to,\n      0,\n      false\n    );\n    nextId++;\n  }\n\n  function sendTransfer(uint id) onlyApprover() external {\n    require(transfers[id].sent == false, 'transfer has already been sent');\n    if(approvals[msg.sender][id] == false) {\n      approvals[msg.sender][id] = true;\n      transfers[id].approvals++;\n    }\n    if(transfers[id].approvals >= quorum) {\n      transfers[id].sent = true;\n      address payable to = transfers[id].to;\n      uint amount = transfers[id].amount;\n      to.transfer(amount);\n      return;\n    }\n  }\n\n  modifier onlyApprover() {\n    bool allowed = false;\n    for(uint i; i < approvers.length; i++) {\n      if(approvers[i] == msg.sender) {\n        allowed = true;\n      }\n    }\n    require(allowed == true, 'only approver allowed');\n    _;\n  }\n}\n",
  "sourcePath": "C:\\Users\\admin\\Desktop\\Dapp30\\multisig-wallet\\contracts\\Wallet.sol",
  "compiler": {
    "name": "solc",
    "version": "0.8.17+commit.8df45f5f.Emscripten.clang"
  },
  "schemaVersion": "3.4.11",
  "updatedAt": "2022-12-03T17:51:46.029Z",
  "networkType": "ethereum",
  "devdoc": {
    "kind": "dev",
    "methods": {},
    "version": 1
  },
  "userdoc": {
    "kind": "user",
    "methods": {},
    "version": 1
  }
}